{
  "contractName": "UserContract",
  "abi": [
    {
      "constant": true,
      "inputs": [],
      "name": "contractNumber",
      "outputs": [
        {
          "name": "",
          "type": "uint256"
        }
      ],
      "payable": false,
      "stateMutability": "view",
      "type": "function"
    },
    {
      "inputs": [],
      "payable": false,
      "stateMutability": "nonpayable",
      "type": "constructor"
    },
    {
      "anonymous": false,
      "inputs": [
        {
          "indexed": false,
          "name": "ToLocation",
          "type": "string"
        },
        {
          "indexed": false,
          "name": "FromLocation",
          "type": "string"
        },
        {
          "indexed": false,
          "name": "quantity",
          "type": "uint256"
        }
      ],
      "name": "ContractCreated",
      "type": "event"
    },
    {
      "constant": false,
      "inputs": [
        {
          "name": "farmerAdhaar",
          "type": "uint256"
        },
        {
          "name": "buyerAdhaar",
          "type": "uint256"
        },
        {
          "name": "quantity",
          "type": "uint256"
        },
        {
          "name": "amount",
          "type": "uint256"
        },
        {
          "name": "fromLocation",
          "type": "string"
        },
        {
          "name": "toLocation",
          "type": "string"
        },
        {
          "name": "date",
          "type": "string"
        }
      ],
      "name": "createContract",
      "outputs": [],
      "payable": false,
      "stateMutability": "nonpayable",
      "type": "function"
    }
  ],
  "bytecode": "0x608060405234801561001057600080fd5b5060008081905550610561806100276000396000f3fe60806040526004361061004c576000357c0100000000000000000000000000000000000000000000000000000000900463ffffffff168063b154e2ec14610051578063cbfbcc171461026f575b600080fd5b34801561005d57600080fd5b5061026d600480360360e081101561007457600080fd5b8101908080359060200190929190803590602001909291908035906020019092919080359060200190929190803590602001906401000000008111156100b957600080fd5b8201836020820111156100cb57600080fd5b803590602001918460018302840111640100000000831117156100ed57600080fd5b91908080601f016020809104026020016040519081016040528093929190818152602001838380828437600081840152601f19601f8201169050808301925050505050505091929192908035906020019064010000000081111561015057600080fd5b82018360208201111561016257600080fd5b8035906020019184600183028401116401000000008311171561018457600080fd5b91908080601f016020809104026020016040519081016040528093929190818152602001838380828437600081840152601f19601f820116905080830192505050505050509192919290803590602001906401000000008111156101e757600080fd5b8201836020820111156101f957600080fd5b8035906020019184600183028401116401000000008311171561021b57600080fd5b91908080601f016020809104026020016040519081016040528093929190818152602001838380828437600081840152601f19601f82011690508083019250505050505050919291929050505061029a565b005b34801561027b57600080fd5b5061028461048a565b6040518082815260200191505060405180910390f35b60e060405190810160405280888152602001878152602001868152602001858152602001848152602001838152602001828152506001600080600081546001019190508190558152602001908152602001600020600082015181600001556020820151816001015560408201518160020155606082015181600301556080820151816004019080519060200190610332929190610490565b5060a082015181600501908051906020019061034f929190610490565b5060c082015181600601908051906020019061036c929190610490565b509050507f8be8faeb4110ff76d2f004f8c420b876a1d646715722ff7bda3d7cb21acb9811828487604051808060200180602001848152602001838103835286818151815260200191508051906020019080838360005b838110156103de5780820151818401526020810190506103c3565b50505050905090810190601f16801561040b5780820380516001836020036101000a031916815260200191505b50838103825285818151815260200191508051906020019080838360005b83811015610444578082015181840152602081019050610429565b50505050905090810190601f1680156104715780820380516001836020036101000a031916815260200191505b509550505050505060405180910390a150505050505050565b60005481565b828054600181600116156101000203166002900490600052602060002090601f016020900481019282601f106104d157805160ff19168380011785556104ff565b828001600101855582156104ff579182015b828111156104fe5782518255916020019190600101906104e3565b5b50905061050c9190610510565b5090565b61053291905b8082111561052e576000816000905550600101610516565b5090565b9056fea165627a7a7230582034b969ed4975371077f854a2e12758e43e088ca215077a63b6cfb1740d347caa0029",
  "source": "pragma solidity 0.5.0;\r\n\r\ncontract UserContract\r\n{\r\n    struct Cont \r\n    {\r\n        uint FarmerAdhaar;\r\n        uint BuyerAdhaar;\r\n        uint quantity;\r\n        uint sellingPrice;\r\n        string FromLocation;\r\n        string ToLocation;\r\n        string date;\r\n    }\r\n    uint256 public contractNumber;\r\n    mapping(uint256 => Cont) contracts;\r\n\r\n    event ContractCreated(string ToLocation,string FromLocation,uint quantity);\r\n\r\n    constructor() public \r\n    {\r\n        contractNumber = 0;\r\n\r\n    }\r\n    function createContract(uint farmerAdhaar,uint  buyerAdhaar,uint quantity,uint  amount,string memory fromLocation,string memory toLocation,string memory date) public \r\n    {\r\n        contracts[++contractNumber] = Cont(farmerAdhaar,buyerAdhaar,quantity,amount,fromLocation,toLocation,date);\r\n        emit ContractCreated(toLocation,fromLocation,quantity);\r\n    }\r\n\r\n}",
  "sourcePath": "D:/trojan_wave/contracts/UserContract.sol",
  "compiler": {
    "name": "solc",
    "version": "0.5.0+commit.1d4f565a.Emscripten.clang"
  },
  "schemaVersion": "3.0.20",
  "updatedAt": "2022-04-10T01:31:36.080Z",
  "devdoc": {
    "methods": {}
  },
  "userdoc": {
    "methods": {}
  }
}