{
  "contractName": "UserContract",
  "abi": [
    {
      "inputs": [],
      "stateMutability": "nonpayable",
      "type": "constructor"
    },
    {
      "anonymous": false,
      "inputs": [
        {
          "indexed": false,
          "internalType": "string",
          "name": "ToLocation",
          "type": "string"
        },
        {
          "indexed": false,
          "internalType": "string",
          "name": "FromLocation",
          "type": "string"
        },
        {
          "indexed": false,
          "internalType": "uint256",
          "name": "quantity",
          "type": "uint256"
        }
      ],
      "name": "ContractCreated",
      "type": "event"
    },
    {
      "inputs": [],
      "name": "contractNumber",
      "outputs": [
        {
          "internalType": "uint256",
          "name": "",
          "type": "uint256"
        }
      ],
      "stateMutability": "view",
      "type": "function"
    },
    {
      "inputs": [
        {
          "internalType": "uint256",
          "name": "",
          "type": "uint256"
        }
      ],
      "name": "contracts",
      "outputs": [
        {
          "internalType": "uint256",
          "name": "FarmerAdhaar",
          "type": "uint256"
        },
        {
          "internalType": "uint256",
          "name": "BuyerAdhaar",
          "type": "uint256"
        },
        {
          "internalType": "uint256",
          "name": "quantity",
          "type": "uint256"
        },
        {
          "internalType": "uint256",
          "name": "sellingPrice",
          "type": "uint256"
        },
        {
          "internalType": "string",
          "name": "FromLocation",
          "type": "string"
        },
        {
          "internalType": "string",
          "name": "ToLocation",
          "type": "string"
        },
        {
          "internalType": "string",
          "name": "date",
          "type": "string"
        }
      ],
      "stateMutability": "view",
      "type": "function"
    },
    {
      "inputs": [
        {
          "internalType": "uint256",
          "name": "farmerAdhaar",
          "type": "uint256"
        },
        {
          "internalType": "uint256",
          "name": "buyerAdhaar",
          "type": "uint256"
        },
        {
          "internalType": "uint256",
          "name": "quantity",
          "type": "uint256"
        },
        {
          "internalType": "uint256",
          "name": "amount",
          "type": "uint256"
        },
        {
          "internalType": "string",
          "name": "fromLocation",
          "type": "string"
        },
        {
          "internalType": "string",
          "name": "toLocation",
          "type": "string"
        },
        {
          "internalType": "string",
          "name": "date",
          "type": "string"
        }
      ],
      "name": "createContract",
      "outputs": [],
      "stateMutability": "nonpayable",
      "type": "function"
    }
  ],
  "bytecode": "0x608060405234801561001057600080fd5b506040518060e00160405280600181526020016001815260200160018152602001600181526020016040518060400160405280600781526020017f64656661756c740000000000000000000000000000000000000000000000000081525081526020016040518060400160405280600781526020017f64656661756c740000000000000000000000000000000000000000000000000081525081526020016040518060400160405280600781526020017f64656661756c74000000000000000000000000000000000000000000000000008152508152506001600080815260200190815260200160002060008201518160000155602082015181600101556040820151816002015560608201518160030155608082015181600401908051906020019061013e929190610189565b5060a082015181600501908051906020019061015b929190610189565b5060c0820151816006019080519060200190610178929190610189565b50905050600160008190555061028c565b8280546101959061025b565b90600052602060002090601f0160209004810192826101b757600085556101fe565b82601f106101d057805160ff19168380011785556101fe565b828001600101855582156101fe579182015b828111156101fd5782518255916020019190600101906101e2565b5b50905061020b919061020f565b5090565b5b80821115610228576000816000905550600101610210565b5090565b7f4e487b7100000000000000000000000000000000000000000000000000000000600052602260045260246000fd5b6000600282049050600182168061027357607f821691505b6020821081036102865761028561022c565b5b50919050565b6109938061029b6000396000f3fe608060405234801561001057600080fd5b50600436106100415760003560e01c8063474da79a14610046578063b154e2ec1461007c578063cbfbcc1714610098575b600080fd5b610060600480360381019061005b91906104a2565b6100b6565b6040516100739796959493929190610577565b60405180910390f35b61009660048036038101906100919190610730565b610290565b005b6100a06103af565b6040516100ad9190610826565b60405180910390f35b60016020528060005260406000206000915090508060000154908060010154908060020154908060030154908060040180546100f190610870565b80601f016020809104026020016040519081016040528092919081815260200182805461011d90610870565b801561016a5780601f1061013f5761010080835404028352916020019161016a565b820191906000526020600020905b81548152906001019060200180831161014d57829003601f168201915b50505050509080600501805461017f90610870565b80601f01602080910402602001604051908101604052809291908181526020018280546101ab90610870565b80156101f85780601f106101cd576101008083540402835291602001916101f8565b820191906000526020600020905b8154815290600101906020018083116101db57829003601f168201915b50505050509080600601805461020d90610870565b80601f016020809104026020016040519081016040528092919081815260200182805461023990610870565b80156102865780601f1061025b57610100808354040283529160200191610286565b820191906000526020600020905b81548152906001019060200180831161026957829003601f168201915b5050505050905087565b6040518060e00160405280888152602001878152602001868152602001858152602001848152602001838152602001828152506001600080600081546102d5906108d0565b919050819055815260200190815260200160002060008201518160000155602082015181600101556040820151816002015560608201518160030155608082015181600401908051906020019061032d9291906103b5565b5060a082015181600501908051906020019061034a9291906103b5565b5060c08201518160060190805190602001906103679291906103b5565b509050507f8be8faeb4110ff76d2f004f8c420b876a1d646715722ff7bda3d7cb21acb981182848760405161039e93929190610918565b60405180910390a150505050505050565b60005481565b8280546103c190610870565b90600052602060002090601f0160209004810192826103e3576000855561042a565b82601f106103fc57805160ff191683800117855561042a565b8280016001018555821561042a579182015b8281111561042957825182559160200191906001019061040e565b5b509050610437919061043b565b5090565b5b8082111561045457600081600090555060010161043c565b5090565b6000604051905090565b600080fd5b600080fd5b6000819050919050565b61047f8161046c565b811461048a57600080fd5b50565b60008135905061049c81610476565b92915050565b6000602082840312156104b8576104b7610462565b5b60006104c68482850161048d565b91505092915050565b6104d88161046c565b82525050565b600081519050919050565b600082825260208201905092915050565b60005b838110156105185780820151818401526020810190506104fd565b83811115610527576000848401525b50505050565b6000601f19601f8301169050919050565b6000610549826104de565b61055381856104e9565b93506105638185602086016104fa565b61056c8161052d565b840191505092915050565b600060e08201905061058c600083018a6104cf565b61059960208301896104cf565b6105a660408301886104cf565b6105b360608301876104cf565b81810360808301526105c5818661053e565b905081810360a08301526105d9818561053e565b905081810360c08301526105ed818461053e565b905098975050505050505050565b600080fd5b600080fd5b7f4e487b7100000000000000000000000000000000000000000000000000000000600052604160045260246000fd5b61063d8261052d565b810181811067ffffffffffffffff8211171561065c5761065b610605565b5b80604052505050565b600061066f610458565b905061067b8282610634565b919050565b600067ffffffffffffffff82111561069b5761069a610605565b5b6106a48261052d565b9050602081019050919050565b82818337600083830152505050565b60006106d36106ce84610680565b610665565b9050828152602081018484840111156106ef576106ee610600565b5b6106fa8482856106b1565b509392505050565b600082601f830112610717576107166105fb565b5b81356107278482602086016106c0565b91505092915050565b600080600080600080600060e0888a03121561074f5761074e610462565b5b600061075d8a828b0161048d565b975050602061076e8a828b0161048d565b965050604061077f8a828b0161048d565b95505060606107908a828b0161048d565b945050608088013567ffffffffffffffff8111156107b1576107b0610467565b5b6107bd8a828b01610702565b93505060a088013567ffffffffffffffff8111156107de576107dd610467565b5b6107ea8a828b01610702565b92505060c088013567ffffffffffffffff81111561080b5761080a610467565b5b6108178a828b01610702565b91505092959891949750929550565b600060208201905061083b60008301846104cf565b92915050565b7f4e487b7100000000000000000000000000000000000000000000000000000000600052602260045260246000fd5b6000600282049050600182168061088857607f821691505b60208210810361089b5761089a610841565b5b50919050565b7f4e487b7100000000000000000000000000000000000000000000000000000000600052601160045260246000fd5b60006108db8261046c565b91507fffffffffffffffffffffffffffffffffffffffffffffffffffffffffffffffff820361090d5761090c6108a1565b5b600182019050919050565b60006060820190508181036000830152610932818661053e565b90508181036020830152610946818561053e565b905061095560408301846104cf565b94935050505056fea2646970667358221220d668583170b51865dffbd7f85b7dd2b2b9394c251cfb7f809c486d2e6e508dcc64736f6c634300080d0033",
  "immutableReferences": {},
  "source": "pragma solidity ^0.8.13;\n\ncontract UserContract\n{\n    struct Cont \n    {\n        uint FarmerAdhaar;\n        uint BuyerAdhaar;\n        uint quantity;\n        uint sellingPrice;\n        string FromLocation;\n        string ToLocation;\n        string date;\n    }\n    uint256 public contractNumber;\n    mapping(uint256 => Cont) public  contracts;\n\n    event ContractCreated(string ToLocation,string FromLocation,uint quantity);\n\n    constructor() public\n    {   \n    \n        contracts[0] = Cont(1,1,1,1,\"default\",\"default\",\"default\");\n        contractNumber = 1;\n\n    }\n    function createContract(uint farmerAdhaar,uint  buyerAdhaar,uint quantity,uint  amount,string memory fromLocation,string memory toLocation,string memory date) public \n    {\n        contracts[++contractNumber] = Cont(farmerAdhaar,buyerAdhaar,quantity,amount,fromLocation,toLocation,date);\n        emit ContractCreated(toLocation,fromLocation,quantity);\n    }\n\n}",
  "sourcePath": "/Users/mac/Desktop/trojan-wave/contracts/UserContract.sol",
  "compiler": {
    "name": "solc",
    "version": "0.8.13+commit.abaa5c0e.Emscripten.clang"
  },
  "schemaVersion": "3.4.7",
  "updatedAt": "2022-04-10T08:08:41.831Z",
  "devdoc": {
    "kind": "dev",
    "methods": {},
    "version": 1
  },
  "userdoc": {
    "kind": "user",
    "methods": {},
    "version": 1
  }
}